{
  "contractName": "NFTCollection",
  "abi": [
    {
      "inputs": [
        {
          "internalType": "string",
          "name": "baseURI",
          "type": "string"
        },
        {
          "internalType": "string",
          "name": "name",
          "type": "string"
        },
        {
          "internalType": "string",
          "name": "symbol",
          "type": "string"
        }
      ],
      "stateMutability": "nonpayable",
      "type": "constructor"
    },
    {
      "anonymous": false,
      "inputs": [
        {
          "indexed": true,
          "internalType": "address",
          "name": "owner",
          "type": "address"
        },
        {
          "indexed": true,
          "internalType": "address",
          "name": "approved",
          "type": "address"
        },
        {
          "indexed": true,
          "internalType": "uint256",
          "name": "tokenId",
          "type": "uint256"
        }
      ],
      "name": "Approval",
      "type": "event"
    },
    {
      "anonymous": false,
      "inputs": [
        {
          "indexed": true,
          "internalType": "address",
          "name": "owner",
          "type": "address"
        },
        {
          "indexed": true,
          "internalType": "address",
          "name": "operator",
          "type": "address"
        },
        {
          "indexed": false,
          "internalType": "bool",
          "name": "approved",
          "type": "bool"
        }
      ],
      "name": "ApprovalForAll",
      "type": "event"
    },
    {
      "anonymous": false,
      "inputs": [
        {
          "indexed": true,
          "internalType": "address",
          "name": "previousOwner",
          "type": "address"
        },
        {
          "indexed": true,
          "internalType": "address",
          "name": "newOwner",
          "type": "address"
        }
      ],
      "name": "OwnershipTransferred",
      "type": "event"
    },
    {
      "anonymous": false,
      "inputs": [
        {
          "indexed": true,
          "internalType": "address",
          "name": "from",
          "type": "address"
        },
        {
          "indexed": true,
          "internalType": "address",
          "name": "to",
          "type": "address"
        },
        {
          "indexed": true,
          "internalType": "uint256",
          "name": "tokenId",
          "type": "uint256"
        }
      ],
      "name": "Transfer",
      "type": "event"
    },
    {
      "inputs": [],
      "name": "MAX_PER_MINT",
      "outputs": [
        {
          "internalType": "uint256",
          "name": "",
          "type": "uint256"
        }
      ],
      "stateMutability": "view",
      "type": "function",
      "constant": true
    },
    {
      "inputs": [],
      "name": "MAX_SUPPLY",
      "outputs": [
        {
          "internalType": "uint256",
          "name": "",
          "type": "uint256"
        }
      ],
      "stateMutability": "view",
      "type": "function",
      "constant": true
    },
    {
      "inputs": [],
      "name": "PRICE",
      "outputs": [
        {
          "internalType": "uint256",
          "name": "",
          "type": "uint256"
        }
      ],
      "stateMutability": "view",
      "type": "function",
      "constant": true
    },
    {
      "inputs": [
        {
          "internalType": "address",
          "name": "to",
          "type": "address"
        },
        {
          "internalType": "uint256",
          "name": "tokenId",
          "type": "uint256"
        }
      ],
      "name": "approve",
      "outputs": [],
      "stateMutability": "nonpayable",
      "type": "function"
    },
    {
      "inputs": [
        {
          "internalType": "address",
          "name": "owner",
          "type": "address"
        }
      ],
      "name": "balanceOf",
      "outputs": [
        {
          "internalType": "uint256",
          "name": "",
          "type": "uint256"
        }
      ],
      "stateMutability": "view",
      "type": "function",
      "constant": true
    },
    {
      "inputs": [],
      "name": "baseTokenURI",
      "outputs": [
        {
          "internalType": "string",
          "name": "",
          "type": "string"
        }
      ],
      "stateMutability": "view",
      "type": "function",
      "constant": true
    },
    {
      "inputs": [
        {
          "internalType": "uint256",
          "name": "tokenId",
          "type": "uint256"
        }
      ],
      "name": "getApproved",
      "outputs": [
        {
          "internalType": "address",
          "name": "",
          "type": "address"
        }
      ],
      "stateMutability": "view",
      "type": "function",
      "constant": true
    },
    {
      "inputs": [
        {
          "internalType": "address",
          "name": "owner",
          "type": "address"
        },
        {
          "internalType": "address",
          "name": "operator",
          "type": "address"
        }
      ],
      "name": "isApprovedForAll",
      "outputs": [
        {
          "internalType": "bool",
          "name": "",
          "type": "bool"
        }
      ],
      "stateMutability": "view",
      "type": "function",
      "constant": true
    },
    {
      "inputs": [],
      "name": "name",
      "outputs": [
        {
          "internalType": "string",
          "name": "",
          "type": "string"
        }
      ],
      "stateMutability": "view",
      "type": "function",
      "constant": true
    },
    {
      "inputs": [],
      "name": "owner",
      "outputs": [
        {
          "internalType": "address",
          "name": "",
          "type": "address"
        }
      ],
      "stateMutability": "view",
      "type": "function",
      "constant": true
    },
    {
      "inputs": [
        {
          "internalType": "uint256",
          "name": "tokenId",
          "type": "uint256"
        }
      ],
      "name": "ownerOf",
      "outputs": [
        {
          "internalType": "address",
          "name": "",
          "type": "address"
        }
      ],
      "stateMutability": "view",
      "type": "function",
      "constant": true
    },
    {
      "inputs": [],
      "name": "renounceOwnership",
      "outputs": [],
      "stateMutability": "nonpayable",
      "type": "function"
    },
    {
      "inputs": [
        {
          "internalType": "address",
          "name": "from",
          "type": "address"
        },
        {
          "internalType": "address",
          "name": "to",
          "type": "address"
        },
        {
          "internalType": "uint256",
          "name": "tokenId",
          "type": "uint256"
        }
      ],
      "name": "safeTransferFrom",
      "outputs": [],
      "stateMutability": "nonpayable",
      "type": "function"
    },
    {
      "inputs": [
        {
          "internalType": "address",
          "name": "from",
          "type": "address"
        },
        {
          "internalType": "address",
          "name": "to",
          "type": "address"
        },
        {
          "internalType": "uint256",
          "name": "tokenId",
          "type": "uint256"
        },
        {
          "internalType": "bytes",
          "name": "data",
          "type": "bytes"
        }
      ],
      "name": "safeTransferFrom",
      "outputs": [],
      "stateMutability": "nonpayable",
      "type": "function"
    },
    {
      "inputs": [
        {
          "internalType": "address",
          "name": "operator",
          "type": "address"
        },
        {
          "internalType": "bool",
          "name": "approved",
          "type": "bool"
        }
      ],
      "name": "setApprovalForAll",
      "outputs": [],
      "stateMutability": "nonpayable",
      "type": "function"
    },
    {
      "inputs": [
        {
          "internalType": "bytes4",
          "name": "interfaceId",
          "type": "bytes4"
        }
      ],
      "name": "supportsInterface",
      "outputs": [
        {
          "internalType": "bool",
          "name": "",
          "type": "bool"
        }
      ],
      "stateMutability": "view",
      "type": "function",
      "constant": true
    },
    {
      "inputs": [],
      "name": "symbol",
      "outputs": [
        {
          "internalType": "string",
          "name": "",
          "type": "string"
        }
      ],
      "stateMutability": "view",
      "type": "function",
      "constant": true
    },
    {
      "inputs": [
        {
          "internalType": "uint256",
          "name": "index",
          "type": "uint256"
        }
      ],
      "name": "tokenByIndex",
      "outputs": [
        {
          "internalType": "uint256",
          "name": "",
          "type": "uint256"
        }
      ],
      "stateMutability": "view",
      "type": "function",
      "constant": true
    },
    {
      "inputs": [
        {
          "internalType": "address",
          "name": "owner",
          "type": "address"
        },
        {
          "internalType": "uint256",
          "name": "index",
          "type": "uint256"
        }
      ],
      "name": "tokenOfOwnerByIndex",
      "outputs": [
        {
          "internalType": "uint256",
          "name": "",
          "type": "uint256"
        }
      ],
      "stateMutability": "view",
      "type": "function",
      "constant": true
    },
    {
      "inputs": [
        {
          "internalType": "uint256",
          "name": "tokenId",
          "type": "uint256"
        }
      ],
      "name": "tokenURI",
      "outputs": [
        {
          "internalType": "string",
          "name": "",
          "type": "string"
        }
      ],
      "stateMutability": "view",
      "type": "function",
      "constant": true
    },
    {
      "inputs": [],
      "name": "totalSupply",
      "outputs": [
        {
          "internalType": "uint256",
          "name": "",
          "type": "uint256"
        }
      ],
      "stateMutability": "view",
      "type": "function",
      "constant": true
    },
    {
      "inputs": [
        {
          "internalType": "address",
          "name": "from",
          "type": "address"
        },
        {
          "internalType": "address",
          "name": "to",
          "type": "address"
        },
        {
          "internalType": "uint256",
          "name": "tokenId",
          "type": "uint256"
        }
      ],
      "name": "transferFrom",
      "outputs": [],
      "stateMutability": "nonpayable",
      "type": "function"
    },
    {
      "inputs": [
        {
          "internalType": "address",
          "name": "newOwner",
          "type": "address"
        }
      ],
      "name": "transferOwnership",
      "outputs": [],
      "stateMutability": "nonpayable",
      "type": "function"
    },
    {
      "inputs": [
        {
          "internalType": "string",
          "name": "_baseTokenURI",
          "type": "string"
        }
      ],
      "name": "setBaseURI",
      "outputs": [],
      "stateMutability": "nonpayable",
      "type": "function"
    },
    {
      "inputs": [
        {
          "internalType": "uint256",
          "name": "_count",
          "type": "uint256"
        }
      ],
      "name": "mintNFTs",
      "outputs": [],
      "stateMutability": "payable",
      "type": "function",
      "payable": true
    },
    {
      "inputs": [
        {
          "internalType": "address",
          "name": "_owner",
          "type": "address"
        }
      ],
      "name": "tokensOfOwner",
      "outputs": [
        {
          "internalType": "uint256[]",
          "name": "",
          "type": "uint256[]"
        }
      ],
      "stateMutability": "view",
      "type": "function",
      "constant": true
    },
    {
      "inputs": [],
      "name": "withdraw",
      "outputs": [],
      "stateMutability": "payable",
      "type": "function",
      "payable": true
    },
    {
      "inputs": [
        {
          "internalType": "uint256",
          "name": "_count",
          "type": "uint256"
        }
      ],
      "name": "reserveNFTs",
      "outputs": [],
      "stateMutability": "nonpayable",
      "type": "function"
    }
  ],
  "bytecode": "0x60806040523480156200001157600080fd5b5060405162004421380380620044218339818101604052810190620000379190620004a9565b81818160009080519060200190620000519291906200025c565b5080600190805190602001906200006a9291906200025c565b5050506200008d62000081620000a760201b60201c565b620000af60201b60201c565b6200009e836200017560201b60201c565b50505062000649565b600033905090565b6000600a60009054906101000a900473ffffffffffffffffffffffffffffffffffffffff16905081600a60006101000a81548173ffffffffffffffffffffffffffffffffffffffff021916908373ffffffffffffffffffffffffffffffffffffffff1602179055508173ffffffffffffffffffffffffffffffffffffffff168173ffffffffffffffffffffffffffffffffffffffff167f8be0079c531659141344cd1fd0a4f28419497f9722a3daafe3b4186f6b6457e060405160405180910390a35050565b62000185620001a160201b60201c565b80600c90805190602001906200019d9291906200025c565b5050565b620001b1620000a760201b60201c565b73ffffffffffffffffffffffffffffffffffffffff16620001d76200023260201b60201c565b73ffffffffffffffffffffffffffffffffffffffff161462000230576040517f08c379a00000000000000000000000000000000000000000000000000000000081526004016200022790620005c3565b60405180910390fd5b565b6000600a60009054906101000a900473ffffffffffffffffffffffffffffffffffffffff16905090565b8280546200026a9062000614565b90600052602060002090601f0160209004810192826200028e5760008555620002da565b82601f10620002a957805160ff1916838001178555620002da565b82800160010185558215620002da579182015b82811115620002d9578251825591602001919060010190620002bc565b5b509050620002e99190620002ed565b5090565b5b8082111562000308576000816000905550600101620002ee565b5090565b6000604051905090565b600080fd5b600080fd5b600080fd5b600080fd5b6000601f19601f8301169050919050565b7f4e487b7100000000000000000000000000000000000000000000000000000000600052604160045260246000fd5b62000375826200032a565b810181811067ffffffffffffffff821117156200039757620003966200033b565b5b80604052505050565b6000620003ac6200030c565b9050620003ba82826200036a565b919050565b600067ffffffffffffffff821115620003dd57620003dc6200033b565b5b620003e8826200032a565b9050602081019050919050565b60005b8381101562000415578082015181840152602081019050620003f8565b8381111562000425576000848401525b50505050565b6000620004426200043c84620003bf565b620003a0565b90508281526020810184848401111562000461576200046062000325565b5b6200046e848285620003f5565b509392505050565b600082601f8301126200048e576200048d62000320565b5b8151620004a08482602086016200042b565b91505092915050565b600080600060608486031215620004c557620004c462000316565b5b600084015167ffffffffffffffff811115620004e657620004e56200031b565b5b620004f48682870162000476565b935050602084015167ffffffffffffffff8111156200051857620005176200031b565b5b620005268682870162000476565b925050604084015167ffffffffffffffff8111156200054a57620005496200031b565b5b620005588682870162000476565b9150509250925092565b600082825260208201905092915050565b7f4f776e61626c653a2063616c6c6572206973206e6f7420746865206f776e6572600082015250565b6000620005ab60208362000562565b9150620005b88262000573565b602082019050919050565b60006020820190508181036000830152620005de816200059c565b9050919050565b7f4e487b7100000000000000000000000000000000000000000000000000000000600052602260045260246000fd5b600060028204905060018216806200062d57607f821691505b602082108103620006435762000642620005e5565b5b50919050565b613dc880620006596000396000f3fe6080604052600436106101b75760003560e01c80636352211e116100ec578063a22cb4651161008a578063c87b56dd11610064578063c87b56dd146105f0578063d547cfb71461062d578063e985e9c514610658578063f2fde38b14610695576101b7565b8063a22cb46514610575578063b88d4fde1461059e578063bc7df091146105c7576101b7565b80638462151c116100c65780638462151c146104b75780638d859f3e146104f45780638da5cb5b1461051f57806395d89b411461054a576101b7565b80636352211e1461042657806370a0823114610463578063715018a6146104a0576101b7565b80632f745c59116101595780633ccfd60b116101335780633ccfd60b1461038d57806342842e0e146103975780634f6ccce7146103c057806355f804b3146103fd576101b7565b80632f745c591461030957806332cb6b0c146103465780633b4b138114610371576101b7565b8063095ea7b311610195578063095ea7b31461026157806309d42b301461028a57806318160ddd146102b557806323b872dd146102e0576101b7565b806301ffc9a7146101bc57806306fdde03146101f9578063081812fc14610224575b600080fd5b3480156101c857600080fd5b506101e360048036038101906101de919061279a565b6106be565b6040516101f091906127e2565b60405180910390f35b34801561020557600080fd5b5061020e610738565b60405161021b9190612896565b60405180910390f35b34801561023057600080fd5b5061024b600480360381019061024691906128ee565b6107ca565b604051610258919061295c565b60405180910390f35b34801561026d57600080fd5b50610288600480360381019061028391906129a3565b610810565b005b34801561029657600080fd5b5061029f610927565b6040516102ac91906129f2565b60405180910390f35b3480156102c157600080fd5b506102ca61092c565b6040516102d791906129f2565b60405180910390f35b3480156102ec57600080fd5b5061030760048036038101906103029190612a0d565b610939565b005b34801561031557600080fd5b50610330600480360381019061032b91906129a3565b610999565b60405161033d91906129f2565b60405180910390f35b34801561035257600080fd5b5061035b610a3e565b60405161036891906129f2565b60405180910390f35b61038b600480360381019061038691906128ee565b610a43565b005b610395610b7d565b005b3480156103a357600080fd5b506103be60048036038101906103b99190612a0d565b610c7d565b005b3480156103cc57600080fd5b506103e760048036038101906103e291906128ee565b610c9d565b6040516103f491906129f2565b60405180910390f35b34801561040957600080fd5b50610424600480360381019061041f9190612b95565b610d0e565b005b34801561043257600080fd5b5061044d600480360381019061044891906128ee565b610d30565b60405161045a919061295c565b60405180910390f35b34801561046f57600080fd5b5061048a60048036038101906104859190612bde565b610de1565b60405161049791906129f2565b60405180910390f35b3480156104ac57600080fd5b506104b5610e98565b005b3480156104c357600080fd5b506104de60048036038101906104d99190612bde565b610eac565b6040516104eb9190612cc9565b60405180910390f35b34801561050057600080fd5b50610509610f5a565b60405161051691906129f2565b60405180910390f35b34801561052b57600080fd5b50610534610f64565b604051610541919061295c565b60405180910390f35b34801561055657600080fd5b5061055f610f8e565b60405161056c9190612896565b60405180910390f35b34801561058157600080fd5b5061059c60048036038101906105979190612d17565b611020565b005b3480156105aa57600080fd5b506105c560048036038101906105c09190612df8565b611036565b005b3480156105d357600080fd5b506105ee60048036038101906105e991906128ee565b611098565b005b3480156105fc57600080fd5b50610617600480360381019061061291906128ee565b61112e565b6040516106249190612896565b60405180910390f35b34801561063957600080fd5b50610642611196565b60405161064f9190612896565b60405180910390f35b34801561066457600080fd5b5061067f600480360381019061067a9190612e7b565b611224565b60405161068c91906127e2565b60405180910390f35b3480156106a157600080fd5b506106bc60048036038101906106b79190612bde565b6112b8565b005b60007f780e9d63000000000000000000000000000000000000000000000000000000007bffffffffffffffffffffffffffffffffffffffffffffffffffffffff1916827bffffffffffffffffffffffffffffffffffffffffffffffffffffffff1916148061073157506107308261133b565b5b9050919050565b60606000805461074790612eea565b80601f016020809104026020016040519081016040528092919081815260200182805461077390612eea565b80156107c05780601f10610795576101008083540402835291602001916107c0565b820191906000526020600020905b8154815290600101906020018083116107a357829003601f168201915b5050505050905090565b60006107d58261141d565b6004600083815260200190815260200160002060009054906101000a900473ffffffffffffffffffffffffffffffffffffffff169050919050565b600061081b82610d30565b90508073ffffffffffffffffffffffffffffffffffffffff168373ffffffffffffffffffffffffffffffffffffffff160361088b576040517f08c379a000000000000000000000000000000000000000000000000000000000815260040161088290612f8d565b60405180910390fd5b8073ffffffffffffffffffffffffffffffffffffffff166108aa611468565b73ffffffffffffffffffffffffffffffffffffffff1614806108d957506108d8816108d3611468565b611224565b5b610918576040517f08c379a000000000000000000000000000000000000000000000000000000000815260040161090f9061301f565b60405180910390fd5b6109228383611470565b505050565b600581565b6000600880549050905090565b61094a610944611468565b82611529565b610989576040517f08c379a0000000000000000000000000000000000000000000000000000000008152600401610980906130b1565b60405180910390fd5b6109948383836115be565b505050565b60006109a483610de1565b82106109e5576040517f08c379a00000000000000000000000000000000000000000000000000000000081526004016109dc90613143565b60405180910390fd5b600660008473ffffffffffffffffffffffffffffffffffffffff1673ffffffffffffffffffffffffffffffffffffffff168152602001908152602001600020600083815260200190815260200160002054905092915050565b600a81565b6000610a4f600b611824565b9050600a610a66838361183290919063ffffffff16565b1115610aa7576040517f08c379a0000000000000000000000000000000000000000000000000000000008152600401610a9e906131af565b60405180910390fd5b600082118015610ab8575060058211155b610af7576040517f08c379a0000000000000000000000000000000000000000000000000000000008152600401610aee90613241565b60405180910390fd5b610b10826509184e72a00061184890919063ffffffff16565b341015610b52576040517f08c379a0000000000000000000000000000000000000000000000000000000008152600401610b49906132d3565b60405180910390fd5b60005b82811015610b7857610b6561185e565b8080610b7090613322565b915050610b55565b505050565b610b85611883565b600047905060008111610bcd576040517f08c379a0000000000000000000000000000000000000000000000000000000008152600401610bc4906133b6565b60405180910390fd5b60003373ffffffffffffffffffffffffffffffffffffffff1682604051610bf390613407565b60006040518083038185875af1925050503d8060008114610c30576040519150601f19603f3d011682016040523d82523d6000602084013e610c35565b606091505b5050905080610c79576040517f08c379a0000000000000000000000000000000000000000000000000000000008152600401610c7090613468565b60405180910390fd5b5050565b610c9883838360405180602001604052806000815250611036565b505050565b6000610ca761092c565b8210610ce8576040517f08c379a0000000000000000000000000000000000000000000000000000000008152600401610cdf906134fa565b60405180910390fd5b60088281548110610cfc57610cfb61351a565b5b90600052602060002001549050919050565b610d16611883565b80600c9080519060200190610d2c92919061268b565b5050565b6000806002600084815260200190815260200160002060009054906101000a900473ffffffffffffffffffffffffffffffffffffffff169050600073ffffffffffffffffffffffffffffffffffffffff168173ffffffffffffffffffffffffffffffffffffffff1603610dd8576040517f08c379a0000000000000000000000000000000000000000000000000000000008152600401610dcf90613595565b60405180910390fd5b80915050919050565b60008073ffffffffffffffffffffffffffffffffffffffff168273ffffffffffffffffffffffffffffffffffffffff1603610e51576040517f08c379a0000000000000000000000000000000000000000000000000000000008152600401610e4890613627565b60405180910390fd5b600360008373ffffffffffffffffffffffffffffffffffffffff1673ffffffffffffffffffffffffffffffffffffffff168152602001908152602001600020549050919050565b610ea0611883565b610eaa6000611901565b565b60606000610eb983610de1565b905060008167ffffffffffffffff811115610ed757610ed6612a6a565b5b604051908082528060200260200182016040528015610f055781602001602082028036833780820191505090505b50905060005b82811015610f4f57610f1d8582610999565b828281518110610f3057610f2f61351a565b5b6020026020010181815250508080610f4790613322565b915050610f0b565b508092505050919050565b6509184e72a00081565b6000600a60009054906101000a900473ffffffffffffffffffffffffffffffffffffffff16905090565b606060018054610f9d90612eea565b80601f0160208091040260200160405190810160405280929190818152602001828054610fc990612eea565b80156110165780601f10610feb57610100808354040283529160200191611016565b820191906000526020600020905b815481529060010190602001808311610ff957829003601f168201915b5050505050905090565b61103261102b611468565b83836119c7565b5050565b611047611041611468565b83611529565b611086576040517f08c379a000000000000000000000000000000000000000000000000000000000815260040161107d906130b1565b60405180910390fd5b61109284848484611b33565b50505050565b6110a0611883565b60006110ac600b611824565b9050600a6110c3838361183290919063ffffffff16565b10611103576040517f08c379a00000000000000000000000000000000000000000000000000000000081526004016110fa90613693565b60405180910390fd5b60005b828110156111295761111661185e565b808061112190613322565b915050611106565b505050565b60606111398261141d565b6000611143611b8f565b90506000815111611163576040518060200160405280600081525061118e565b8061116d84611c21565b60405160200161117e9291906136ef565b6040516020818303038152906040525b915050919050565b600c80546111a390612eea565b80601f01602080910402602001604051908101604052809291908181526020018280546111cf90612eea565b801561121c5780601f106111f15761010080835404028352916020019161121c565b820191906000526020600020905b8154815290600101906020018083116111ff57829003601f168201915b505050505081565b6000600560008473ffffffffffffffffffffffffffffffffffffffff1673ffffffffffffffffffffffffffffffffffffffff16815260200190815260200160002060008373ffffffffffffffffffffffffffffffffffffffff1673ffffffffffffffffffffffffffffffffffffffff16815260200190815260200160002060009054906101000a900460ff16905092915050565b6112c0611883565b600073ffffffffffffffffffffffffffffffffffffffff168173ffffffffffffffffffffffffffffffffffffffff160361132f576040517f08c379a000000000000000000000000000000000000000000000000000000000815260040161132690613785565b60405180910390fd5b61133881611901565b50565b60007f80ac58cd000000000000000000000000000000000000000000000000000000007bffffffffffffffffffffffffffffffffffffffffffffffffffffffff1916827bffffffffffffffffffffffffffffffffffffffffffffffffffffffff1916148061140657507f5b5e139f000000000000000000000000000000000000000000000000000000007bffffffffffffffffffffffffffffffffffffffffffffffffffffffff1916827bffffffffffffffffffffffffffffffffffffffffffffffffffffffff1916145b80611416575061141582611d81565b5b9050919050565b61142681611deb565b611465576040517f08c379a000000000000000000000000000000000000000000000000000000000815260040161145c90613595565b60405180910390fd5b50565b600033905090565b816004600083815260200190815260200160002060006101000a81548173ffffffffffffffffffffffffffffffffffffffff021916908373ffffffffffffffffffffffffffffffffffffffff160217905550808273ffffffffffffffffffffffffffffffffffffffff166114e383610d30565b73ffffffffffffffffffffffffffffffffffffffff167f8c5be1e5ebec7d5bd14f71427d1e84f3dd0314c0f7b2291e5b200ac8c7c3b92560405160405180910390a45050565b60008061153583610d30565b90508073ffffffffffffffffffffffffffffffffffffffff168473ffffffffffffffffffffffffffffffffffffffff16148061157757506115768185611224565b5b806115b557508373ffffffffffffffffffffffffffffffffffffffff1661159d846107ca565b73ffffffffffffffffffffffffffffffffffffffff16145b91505092915050565b8273ffffffffffffffffffffffffffffffffffffffff166115de82610d30565b73ffffffffffffffffffffffffffffffffffffffff1614611634576040517f08c379a000000000000000000000000000000000000000000000000000000000815260040161162b90613817565b60405180910390fd5b600073ffffffffffffffffffffffffffffffffffffffff168273ffffffffffffffffffffffffffffffffffffffff16036116a3576040517f08c379a000000000000000000000000000000000000000000000000000000000815260040161169a906138a9565b60405180910390fd5b6116ae838383611e57565b6116b9600082611470565b6001600360008573ffffffffffffffffffffffffffffffffffffffff1673ffffffffffffffffffffffffffffffffffffffff168152602001908152602001600020600082825461170991906138c9565b925050819055506001600360008473ffffffffffffffffffffffffffffffffffffffff1673ffffffffffffffffffffffffffffffffffffffff168152602001908152602001600020600082825461176091906138fd565b92505081905550816002600083815260200190815260200160002060006101000a81548173ffffffffffffffffffffffffffffffffffffffff021916908373ffffffffffffffffffffffffffffffffffffffff160217905550808273ffffffffffffffffffffffffffffffffffffffff168473ffffffffffffffffffffffffffffffffffffffff167fddf252ad1be2c89b69c2b068fc378daa952ba7f163c4a11628f55a4df523b3ef60405160405180910390a461181f838383611f69565b505050565b600081600001549050919050565b6000818361184091906138fd565b905092915050565b600081836118569190613953565b905092915050565b600061186a600b611824565b90506118763382611f6e565b611880600b611f8c565b50565b61188b611468565b73ffffffffffffffffffffffffffffffffffffffff166118a9610f64565b73ffffffffffffffffffffffffffffffffffffffff16146118ff576040517f08c379a00000000000000000000000000000000000000000000000000000000081526004016118f6906139f9565b60405180910390fd5b565b6000600a60009054906101000a900473ffffffffffffffffffffffffffffffffffffffff16905081600a60006101000a81548173ffffffffffffffffffffffffffffffffffffffff021916908373ffffffffffffffffffffffffffffffffffffffff1602179055508173ffffffffffffffffffffffffffffffffffffffff168173ffffffffffffffffffffffffffffffffffffffff167f8be0079c531659141344cd1fd0a4f28419497f9722a3daafe3b4186f6b6457e060405160405180910390a35050565b8173ffffffffffffffffffffffffffffffffffffffff168373ffffffffffffffffffffffffffffffffffffffff1603611a35576040517f08c379a0000000000000000000000000000000000000000000000000000000008152600401611a2c90613a65565b60405180910390fd5b80600560008573ffffffffffffffffffffffffffffffffffffffff1673ffffffffffffffffffffffffffffffffffffffff16815260200190815260200160002060008473ffffffffffffffffffffffffffffffffffffffff1673ffffffffffffffffffffffffffffffffffffffff16815260200190815260200160002060006101000a81548160ff0219169083151502179055508173ffffffffffffffffffffffffffffffffffffffff168373ffffffffffffffffffffffffffffffffffffffff167f17307eab39ab6107e8899845ad3d59bd9653f200f220920489ca2b5937696c3183604051611b2691906127e2565b60405180910390a3505050565b611b3e8484846115be565b611b4a84848484611fa2565b611b89576040517f08c379a0000000000000000000000000000000000000000000000000000000008152600401611b8090613af7565b60405180910390fd5b50505050565b6060600c8054611b9e90612eea565b80601f0160208091040260200160405190810160405280929190818152602001828054611bca90612eea565b8015611c175780601f10611bec57610100808354040283529160200191611c17565b820191906000526020600020905b815481529060010190602001808311611bfa57829003601f168201915b5050505050905090565b606060008203611c68576040518060400160405280600181526020017f30000000000000000000000000000000000000000000000000000000000000008152509050611d7c565b600082905060005b60008214611c9a578080611c8390613322565b915050600a82611c939190613b46565b9150611c70565b60008167ffffffffffffffff811115611cb657611cb5612a6a565b5b6040519080825280601f01601f191660200182016040528015611ce85781602001600182028036833780820191505090505b5090505b60008514611d7557600182611d0191906138c9565b9150600a85611d109190613b77565b6030611d1c91906138fd565b60f81b818381518110611d3257611d3161351a565b5b60200101907effffffffffffffffffffffffffffffffffffffffffffffffffffffffffffff1916908160001a905350600a85611d6e9190613b46565b9450611cec565b8093505050505b919050565b60007f01ffc9a7000000000000000000000000000000000000000000000000000000007bffffffffffffffffffffffffffffffffffffffffffffffffffffffff1916827bffffffffffffffffffffffffffffffffffffffffffffffffffffffff1916149050919050565b60008073ffffffffffffffffffffffffffffffffffffffff166002600084815260200190815260200160002060009054906101000a900473ffffffffffffffffffffffffffffffffffffffff1673ffffffffffffffffffffffffffffffffffffffff1614159050919050565b611e62838383612129565b600073ffffffffffffffffffffffffffffffffffffffff168373ffffffffffffffffffffffffffffffffffffffff1603611ea457611e9f8161212e565b611ee3565b8173ffffffffffffffffffffffffffffffffffffffff168373ffffffffffffffffffffffffffffffffffffffff1614611ee257611ee18382612177565b5b5b600073ffffffffffffffffffffffffffffffffffffffff168273ffffffffffffffffffffffffffffffffffffffff1603611f2557611f20816122e4565b611f64565b8273ffffffffffffffffffffffffffffffffffffffff168273ffffffffffffffffffffffffffffffffffffffff1614611f6357611f6282826123b5565b5b5b505050565b505050565b611f88828260405180602001604052806000815250612434565b5050565b6001816000016000828254019250508190555050565b6000611fc38473ffffffffffffffffffffffffffffffffffffffff1661248f565b1561211c578373ffffffffffffffffffffffffffffffffffffffff1663150b7a02611fec611468565b8786866040518563ffffffff1660e01b815260040161200e9493929190613bfd565b6020604051808303816000875af192505050801561204a57506040513d601f19601f820116820180604052508101906120479190613c5e565b60015b6120cc573d806000811461207a576040519150601f19603f3d011682016040523d82523d6000602084013e61207f565b606091505b5060008151036120c4576040517f08c379a00000000000000000000000000000000000000000000000000000000081526004016120bb90613af7565b60405180910390fd5b805181602001fd5b63150b7a0260e01b7bffffffffffffffffffffffffffffffffffffffffffffffffffffffff1916817bffffffffffffffffffffffffffffffffffffffffffffffffffffffff191614915050612121565b600190505b949350505050565b505050565b6008805490506009600083815260200190815260200160002081905550600881908060018154018082558091505060019003906000526020600020016000909190919091505550565b6000600161218484610de1565b61218e91906138c9565b9050600060076000848152602001908152602001600020549050818114612273576000600660008673ffffffffffffffffffffffffffffffffffffffff1673ffffffffffffffffffffffffffffffffffffffff168152602001908152602001600020600084815260200190815260200160002054905080600660008773ffffffffffffffffffffffffffffffffffffffff1673ffffffffffffffffffffffffffffffffffffffff168152602001908152602001600020600084815260200190815260200160002081905550816007600083815260200190815260200160002081905550505b6007600084815260200190815260200160002060009055600660008573ffffffffffffffffffffffffffffffffffffffff1673ffffffffffffffffffffffffffffffffffffffff16815260200190815260200160002060008381526020019081526020016000206000905550505050565b600060016008805490506122f891906138c9565b90506000600960008481526020019081526020016000205490506000600883815481106123285761232761351a565b5b90600052602060002001549050806008838154811061234a5761234961351a565b5b90600052602060002001819055508160096000838152602001908152602001600020819055506009600085815260200190815260200160002060009055600880548061239957612398613c8b565b5b6001900381819060005260206000200160009055905550505050565b60006123c083610de1565b905081600660008573ffffffffffffffffffffffffffffffffffffffff1673ffffffffffffffffffffffffffffffffffffffff168152602001908152602001600020600083815260200190815260200160002081905550806007600084815260200190815260200160002081905550505050565b61243e83836124b2565b61244b6000848484611fa2565b61248a576040517f08c379a000000000000000000000000000000000000000000000000000000000815260040161248190613af7565b60405180910390fd5b505050565b6000808273ffffffffffffffffffffffffffffffffffffffff163b119050919050565b600073ffffffffffffffffffffffffffffffffffffffff168273ffffffffffffffffffffffffffffffffffffffff1603612521576040517f08c379a000000000000000000000000000000000000000000000000000000000815260040161251890613d06565b60405180910390fd5b61252a81611deb565b1561256a576040517f08c379a000000000000000000000000000000000000000000000000000000000815260040161256190613d72565b60405180910390fd5b61257660008383611e57565b6001600360008473ffffffffffffffffffffffffffffffffffffffff1673ffffffffffffffffffffffffffffffffffffffff16815260200190815260200160002060008282546125c691906138fd565b92505081905550816002600083815260200190815260200160002060006101000a81548173ffffffffffffffffffffffffffffffffffffffff021916908373ffffffffffffffffffffffffffffffffffffffff160217905550808273ffffffffffffffffffffffffffffffffffffffff16600073ffffffffffffffffffffffffffffffffffffffff167fddf252ad1be2c89b69c2b068fc378daa952ba7f163c4a11628f55a4df523b3ef60405160405180910390a461268760008383611f69565b5050565b82805461269790612eea565b90600052602060002090601f0160209004810192826126b95760008555612700565b82601f106126d257805160ff1916838001178555612700565b82800160010185558215612700579182015b828111156126ff5782518255916020019190600101906126e4565b5b50905061270d9190612711565b5090565b5b8082111561272a576000816000905550600101612712565b5090565b6000604051905090565b600080fd5b600080fd5b60007fffffffff0000000000000000000000000000000000000000000000000000000082169050919050565b61277781612742565b811461278257600080fd5b50565b6000813590506127948161276e565b92915050565b6000602082840312156127b0576127af612738565b5b60006127be84828501612785565b91505092915050565b60008115159050919050565b6127dc816127c7565b82525050565b60006020820190506127f760008301846127d3565b92915050565b600081519050919050565b600082825260208201905092915050565b60005b8381101561283757808201518184015260208101905061281c565b83811115612846576000848401525b50505050565b6000601f19601f8301169050919050565b6000612868826127fd565b6128728185612808565b9350612882818560208601612819565b61288b8161284c565b840191505092915050565b600060208201905081810360008301526128b0818461285d565b905092915050565b6000819050919050565b6128cb816128b8565b81146128d657600080fd5b50565b6000813590506128e8816128c2565b92915050565b60006020828403121561290457612903612738565b5b6000612912848285016128d9565b91505092915050565b600073ffffffffffffffffffffffffffffffffffffffff82169050919050565b60006129468261291b565b9050919050565b6129568161293b565b82525050565b6000602082019050612971600083018461294d565b92915050565b6129808161293b565b811461298b57600080fd5b50565b60008135905061299d81612977565b92915050565b600080604083850312156129ba576129b9612738565b5b60006129c88582860161298e565b92505060206129d9858286016128d9565b9150509250929050565b6129ec816128b8565b82525050565b6000602082019050612a0760008301846129e3565b92915050565b600080600060608486031215612a2657612a25612738565b5b6000612a348682870161298e565b9350506020612a458682870161298e565b9250506040612a56868287016128d9565b9150509250925092565b600080fd5b600080fd5b7f4e487b7100000000000000000000000000000000000000000000000000000000600052604160045260246000fd5b612aa28261284c565b810181811067ffffffffffffffff82111715612ac157612ac0612a6a565b5b80604052505050565b6000612ad461272e565b9050612ae08282612a99565b919050565b600067ffffffffffffffff821115612b0057612aff612a6a565b5b612b098261284c565b9050602081019050919050565b82818337600083830152505050565b6000612b38612b3384612ae5565b612aca565b905082815260208101848484011115612b5457612b53612a65565b5b612b5f848285612b16565b509392505050565b600082601f830112612b7c57612b7b612a60565b5b8135612b8c848260208601612b25565b91505092915050565b600060208284031215612bab57612baa612738565b5b600082013567ffffffffffffffff811115612bc957612bc861273d565b5b612bd584828501612b67565b91505092915050565b600060208284031215612bf457612bf3612738565b5b6000612c028482850161298e565b91505092915050565b600081519050919050565b600082825260208201905092915050565b6000819050602082019050919050565b612c40816128b8565b82525050565b6000612c528383612c37565b60208301905092915050565b6000602082019050919050565b6000612c7682612c0b565b612c808185612c16565b9350612c8b83612c27565b8060005b83811015612cbc578151612ca38882612c46565b9750612cae83612c5e565b925050600181019050612c8f565b5085935050505092915050565b60006020820190508181036000830152612ce38184612c6b565b905092915050565b612cf4816127c7565b8114612cff57600080fd5b50565b600081359050612d1181612ceb565b92915050565b60008060408385031215612d2e57612d2d612738565b5b6000612d3c8582860161298e565b9250506020612d4d85828601612d02565b9150509250929050565b600067ffffffffffffffff821115612d7257612d71612a6a565b5b612d7b8261284c565b9050602081019050919050565b6000612d9b612d9684612d57565b612aca565b905082815260208101848484011115612db757612db6612a65565b5b612dc2848285612b16565b509392505050565b600082601f830112612ddf57612dde612a60565b5b8135612def848260208601612d88565b91505092915050565b60008060008060808587031215612e1257612e11612738565b5b6000612e208782880161298e565b9450506020612e318782880161298e565b9350506040612e42878288016128d9565b925050606085013567ffffffffffffffff811115612e6357612e6261273d565b5b612e6f87828801612dca565b91505092959194509250565b60008060408385031215612e9257612e91612738565b5b6000612ea08582860161298e565b9250506020612eb18582860161298e565b9150509250929050565b7f4e487b7100000000000000000000000000000000000000000000000000000000600052602260045260246000fd5b60006002820490506001821680612f0257607f821691505b602082108103612f1557612f14612ebb565b5b50919050565b7f4552433732313a20617070726f76616c20746f2063757272656e74206f776e6560008201527f7200000000000000000000000000000000000000000000000000000000000000602082015250565b6000612f77602183612808565b9150612f8282612f1b565b604082019050919050565b60006020820190508181036000830152612fa681612f6a565b9050919050565b7f4552433732313a20617070726f76652063616c6c6572206973206e6f7420746f60008201527f6b656e206f776e6572206e6f7220617070726f76656420666f7220616c6c0000602082015250565b6000613009603e83612808565b915061301482612fad565b604082019050919050565b6000602082019050818103600083015261303881612ffc565b9050919050565b7f4552433732313a2063616c6c6572206973206e6f7420746f6b656e206f776e6560008201527f72206e6f7220617070726f766564000000000000000000000000000000000000602082015250565b600061309b602e83612808565b91506130a68261303f565b604082019050919050565b600060208201905081810360008301526130ca8161308e565b9050919050565b7f455243373231456e756d657261626c653a206f776e657220696e646578206f7560008201527f74206f6620626f756e6473000000000000000000000000000000000000000000602082015250565b600061312d602b83612808565b9150613138826130d1565b604082019050919050565b6000602082019050818103600083015261315c81613120565b9050919050565b7f5468697320636f6c6c656374696f6e20697320736f6c64206f75742100000000600082015250565b6000613199601c83612808565b91506131a482613163565b602082019050919050565b600060208201905081810360008301526131c88161318c565b9050919050565b7f596f75206861766520726563656976656420746865206d6178696d756d20616d60008201527f6f756e74206f66204e46547320616c6c6f7765642e0000000000000000000000602082015250565b600061322b603583612808565b9150613236826131cf565b604082019050919050565b6000602082019050818103600083015261325a8161321e565b9050919050565b7f4e6f7420656e6f75676820657468657220746f207075726368617365204e465460008201527f732e000000000000000000000000000000000000000000000000000000000000602082015250565b60006132bd602283612808565b91506132c882613261565b604082019050919050565b600060208201905081810360008301526132ec816132b0565b9050919050565b7f4e487b7100000000000000000000000000000000000000000000000000000000600052601160045260246000fd5b600061332d826128b8565b91507fffffffffffffffffffffffffffffffffffffffffffffffffffffffffffffffff820361335f5761335e6132f3565b5b600182019050919050565b7f4e6f206574686572206c65667420746f20776974686472617700000000000000600082015250565b60006133a0601983612808565b91506133ab8261336a565b602082019050919050565b600060208201905081810360008301526133cf81613393565b9050919050565b600081905092915050565b50565b60006133f16000836133d6565b91506133fc826133e1565b600082019050919050565b6000613412826133e4565b9150819050919050565b7f5472616e73666572206661696c65642e00000000000000000000000000000000600082015250565b6000613452601083612808565b915061345d8261341c565b602082019050919050565b6000602082019050818103600083015261348181613445565b9050919050565b7f455243373231456e756d657261626c653a20676c6f62616c20696e646578206f60008201527f7574206f6620626f756e64730000000000000000000000000000000000000000602082015250565b60006134e4602c83612808565b91506134ef82613488565b604082019050919050565b60006020820190508181036000830152613513816134d7565b9050919050565b7f4e487b7100000000000000000000000000000000000000000000000000000000600052603260045260246000fd5b7f4552433732313a20696e76616c696420746f6b656e2049440000000000000000600082015250565b600061357f601883612808565b915061358a82613549565b602082019050919050565b600060208201905081810360008301526135ae81613572565b9050919050565b7f4552433732313a2061646472657373207a65726f206973206e6f74206120766160008201527f6c6964206f776e65720000000000000000000000000000000000000000000000602082015250565b6000613611602983612808565b915061361c826135b5565b604082019050919050565b6000602082019050818103600083015261364081613604565b9050919050565b7f4e6f7420656e6f756768204e465473206c65667420746f207265736572766500600082015250565b600061367d601f83612808565b915061368882613647565b602082019050919050565b600060208201905081810360008301526136ac81613670565b9050919050565b600081905092915050565b60006136c9826127fd565b6136d381856136b3565b93506136e3818560208601612819565b80840191505092915050565b60006136fb82856136be565b915061370782846136be565b91508190509392505050565b7f4f776e61626c653a206e6577206f776e657220697320746865207a65726f206160008201527f6464726573730000000000000000000000000000000000000000000000000000602082015250565b600061376f602683612808565b915061377a82613713565b604082019050919050565b6000602082019050818103600083015261379e81613762565b9050919050565b7f4552433732313a207472616e736665722066726f6d20696e636f72726563742060008201527f6f776e6572000000000000000000000000000000000000000000000000000000602082015250565b6000613801602583612808565b915061380c826137a5565b604082019050919050565b60006020820190508181036000830152613830816137f4565b9050919050565b7f4552433732313a207472616e7366657220746f20746865207a65726f2061646460008201527f7265737300000000000000000000000000000000000000000000000000000000602082015250565b6000613893602483612808565b915061389e82613837565b604082019050919050565b600060208201905081810360008301526138c281613886565b9050919050565b60006138d4826128b8565b91506138df836128b8565b9250828210156138f2576138f16132f3565b5b828203905092915050565b6000613908826128b8565b9150613913836128b8565b9250827fffffffffffffffffffffffffffffffffffffffffffffffffffffffffffffffff03821115613948576139476132f3565b5b828201905092915050565b600061395e826128b8565b9150613969836128b8565b9250817fffffffffffffffffffffffffffffffffffffffffffffffffffffffffffffffff04831182151516156139a2576139a16132f3565b5b828202905092915050565b7f4f776e61626c653a2063616c6c6572206973206e6f7420746865206f776e6572600082015250565b60006139e3602083612808565b91506139ee826139ad565b602082019050919050565b60006020820190508181036000830152613a12816139d6565b9050919050565b7f4552433732313a20617070726f766520746f2063616c6c657200000000000000600082015250565b6000613a4f601983612808565b9150613a5a82613a19565b602082019050919050565b60006020820190508181036000830152613a7e81613a42565b9050919050565b7f4552433732313a207472616e7366657220746f206e6f6e20455243373231526560008201527f63656976657220696d706c656d656e7465720000000000000000000000000000602082015250565b6000613ae1603283612808565b9150613aec82613a85565b604082019050919050565b60006020820190508181036000830152613b1081613ad4565b9050919050565b7f4e487b7100000000000000000000000000000000000000000000000000000000600052601260045260246000fd5b6000613b51826128b8565b9150613b5c836128b8565b925082613b6c57613b6b613b17565b5b828204905092915050565b6000613b82826128b8565b9150613b8d836128b8565b925082613b9d57613b9c613b17565b5b828206905092915050565b600081519050919050565b600082825260208201905092915050565b6000613bcf82613ba8565b613bd98185613bb3565b9350613be9818560208601612819565b613bf28161284c565b840191505092915050565b6000608082019050613c12600083018761294d565b613c1f602083018661294d565b613c2c60408301856129e3565b8181036060830152613c3e8184613bc4565b905095945050505050565b600081519050613c588161276e565b92915050565b600060208284031215613c7457613c73612738565b5b6000613c8284828501613c49565b91505092915050565b7f4e487b7100000000000000000000000000000000000000000000000000000000600052603160045260246000fd5b7f4552433732313a206d696e7420746f20746865207a65726f2061646472657373600082015250565b6000613cf0602083612808565b9150613cfb82613cba565b602082019050919050565b60006020820190508181036000830152613d1f81613ce3565b9050919050565b7f4552433732313a20746f6b656e20616c7265616479206d696e74656400000000600082015250565b6000613d5c601c83612808565b9150613d6782613d26565b602082019050919050565b60006020820190508181036000830152613d8b81613d4f565b905091905056fea26469706673582212207945fd6582fe904634420dbbe462f872bcf76963af68c1d583d34a5c8827a49464736f6c634300080d0033",
  "immutableReferences": {},
  "source": "//SPDX-License-Identifier: MIT\npragma solidity ^0.8.13;\n\nimport \"@openzeppelin/contracts/utils/Counters.sol\";\nimport \"@openzeppelin/contracts/access/Ownable.sol\";\nimport \"@openzeppelin/contracts/utils/math/SafeMath.sol\";\nimport \"@openzeppelin/contracts/token/ERC721/extensions/ERC721Enumerable.sol\";\n\ncontract NFTCollection is ERC721Enumerable, Ownable {\n    using SafeMath for uint256;\n    using Counters for Counters.Counter;\n\n    Counters.Counter private _tokenIds;\n    // The max number of NFTs in the collection\n    uint public constant MAX_SUPPLY = 10;\n    // The mint price for the collection\n    uint public constant PRICE = 0.00001 ether;\n    // The max number of mints per wallet\n    uint public constant MAX_PER_MINT = 5;\n\n    string public baseTokenURI;\n\n    constructor(string memory baseURI, string memory name, string memory symbol) ERC721(name, symbol) {\n        setBaseURI(baseURI);\n    }\n\n\n    function _baseURI() internal view virtual override returns (string memory) {\n        return baseTokenURI;\n    }\n\n    function setBaseURI(string memory _baseTokenURI) public onlyOwner {\n        baseTokenURI = _baseTokenURI;\n    }\n\n    function mintNFTs(uint _count) public payable {\n        uint totalMinted = _tokenIds.current();\n\n        require(totalMinted.add(_count) <= MAX_SUPPLY, \"This collection is sold out!\");\n        require(_count >0 && _count <= MAX_PER_MINT, \"You have received the maximum amount of NFTs allowed.\");\n        require(msg.value >= PRICE.mul(_count), \"Not enough ether to purchase NFTs.\");\n\n        for (uint i = 0; i < _count; i++) {\n            _mintSingleNFT();\n        }\n    }\n\n    function _mintSingleNFT() private {\n        uint newTokenID = _tokenIds.current();\n        _safeMint(msg.sender, newTokenID);\n        _tokenIds.increment();\n    }\n    \n    // Returns the ids of the NFTs owned by the wallet address\n    function tokensOfOwner(address _owner) external view returns (uint[] memory) {\n        uint tokenCount = balanceOf(_owner);\n        uint[] memory tokensId = new uint256[](tokenCount);\n\n        for (uint i = 0; i < tokenCount; i++) {\n            tokensId[i] = tokenOfOwnerByIndex(_owner, i);\n        }\n        return tokensId;\n    }\n    \n    // Withdraw the ether in the contract\n    function withdraw() public payable onlyOwner {\n        uint balance = address(this).balance;\n        require(balance > 0, \"No ether left to withdraw\");\n\n        (bool success, ) = (msg.sender).call{value: balance}(\"\");\n        require(success, \"Transfer failed.\");\n    }\n\n    // Reserve NFTs only for owner to mint for free\n    function reserveNFTs(uint _count) public onlyOwner {\n        uint totalMinted = _tokenIds.current();\n\n        require(totalMinted.add(_count) < MAX_SUPPLY, \"Not enough NFTs left to reserve\");\n\n        for (uint i = 0; i < _count; i++) {\n            _mintSingleNFT();\n        }\n    }\n}\n\n",
  "sourcePath": "/Users/mac/Documents/NFT-Dev/contracts/Ethereum-Polygone/Minting Dapp/contracts/NFTCollection.sol",
  "compiler": {
    "name": "solc",
    "version": "0.8.13+commit.abaa5c0e.Emscripten.clang"
  },
  "schemaVersion": "3.4.9",
  "updatedAt": "2022-09-04T19:33:02.961Z",
  "networkType": "ethereum",
  "devdoc": {
    "kind": "dev",
    "methods": {
      "approve(address,uint256)": {
        "details": "See {IERC721-approve}."
      },
      "balanceOf(address)": {
        "details": "See {IERC721-balanceOf}."
      },
      "getApproved(uint256)": {
        "details": "See {IERC721-getApproved}."
      },
      "isApprovedForAll(address,address)": {
        "details": "See {IERC721-isApprovedForAll}."
      },
      "name()": {
        "details": "See {IERC721Metadata-name}."
      },
      "owner()": {
        "details": "Returns the address of the current owner."
      },
      "ownerOf(uint256)": {
        "details": "See {IERC721-ownerOf}."
      },
      "renounceOwnership()": {
        "details": "Leaves the contract without owner. It will not be possible to call `onlyOwner` functions anymore. Can only be called by the current owner. NOTE: Renouncing ownership will leave the contract without an owner, thereby removing any functionality that is only available to the owner."
      },
      "safeTransferFrom(address,address,uint256)": {
        "details": "See {IERC721-safeTransferFrom}."
      },
      "safeTransferFrom(address,address,uint256,bytes)": {
        "details": "See {IERC721-safeTransferFrom}."
      },
      "setApprovalForAll(address,bool)": {
        "details": "See {IERC721-setApprovalForAll}."
      },
      "supportsInterface(bytes4)": {
        "details": "See {IERC165-supportsInterface}."
      },
      "symbol()": {
        "details": "See {IERC721Metadata-symbol}."
      },
      "tokenByIndex(uint256)": {
        "details": "See {IERC721Enumerable-tokenByIndex}."
      },
      "tokenOfOwnerByIndex(address,uint256)": {
        "details": "See {IERC721Enumerable-tokenOfOwnerByIndex}."
      },
      "tokenURI(uint256)": {
        "details": "See {IERC721Metadata-tokenURI}."
      },
      "totalSupply()": {
        "details": "See {IERC721Enumerable-totalSupply}."
      },
      "transferFrom(address,address,uint256)": {
        "details": "See {IERC721-transferFrom}."
      },
      "transferOwnership(address)": {
        "details": "Transfers ownership of the contract to a new account (`newOwner`). Can only be called by the current owner."
      }
    },
    "version": 1
  },
  "userdoc": {
    "kind": "user",
    "methods": {},
    "version": 1
  }
}